{
  "_format": "hh-sol-artifact-1",
  "contractName": "SecrETH",
  "sourceName": "contracts/SecrETH.sol",
  "abi": [
    {
      "inputs": [
        {
          "internalType": "address[]",
          "name": "initialSigners",
          "type": "address[]"
        },
        {
          "internalType": "bytes32",
          "name": "_pubKey",
          "type": "bytes32"
        },
        {
          "internalType": "uint32",
          "name": "_threshold",
          "type": "uint32"
        },
        {
          "internalType": "uint32",
          "name": "_numSigners",
          "type": "uint32"
        },
        {
          "internalType": "uint32",
          "name": "_blocksDelay",
          "type": "uint32"
        },
        {
          "internalType": "uint32",
          "name": "_generalFee",
          "type": "uint32"
        }
      ],
      "stateMutability": "nonpayable",
      "type": "constructor"
    },
    {
      "anonymous": false,
      "inputs": [
        {
          "indexed": false,
          "internalType": "string",
          "name": "cipher",
          "type": "string"
        },
        {
          "indexed": false,
          "internalType": "bool",
          "name": "shouldStoreDecryption",
          "type": "bool"
        }
      ],
      "name": "DecryptionCalled",
      "type": "event"
    },
    {
      "anonymous": false,
      "inputs": [
        {
          "indexed": false,
          "internalType": "string",
          "name": "cipher",
          "type": "string"
        }
      ],
      "name": "DecryptionReady",
      "type": "event"
    },
    {
      "anonymous": false,
      "inputs": [
        {
          "indexed": false,
          "internalType": "string",
          "name": "cipher",
          "type": "string"
        },
        {
          "indexed": false,
          "internalType": "uint256",
          "name": "storageFee",
          "type": "uint256"
        }
      ],
      "name": "DecryptionReadyIncentivized",
      "type": "event"
    },
    {
      "anonymous": false,
      "inputs": [
        {
          "indexed": false,
          "internalType": "bytes32",
          "name": "newSignerPubKey",
          "type": "bytes32"
        }
      ],
      "name": "JoinNetworkRequest",
      "type": "event"
    },
    {
      "inputs": [
        {
          "internalType": "string",
          "name": "",
          "type": "string"
        }
      ],
      "name": "allCiphers",
      "outputs": [
        {
          "internalType": "address",
          "name": "cipherOwner",
          "type": "address"
        },
        {
          "internalType": "uint256",
          "name": "decryptionInitBlock",
          "type": "uint256"
        },
        {
          "internalType": "bool",
          "name": "storeDecryption",
          "type": "bool"
        },
        {
          "internalType": "string",
          "name": "decryptedCipher",
          "type": "string"
        },
        {
          "internalType": "uint256",
          "name": "decryptionStorageFee",
          "type": "uint256"
        }
      ],
      "stateMutability": "view",
      "type": "function"
    },
    {
      "inputs": [
        {
          "internalType": "string",
          "name": "cipher",
          "type": "string"
        },
        {
          "internalType": "bool",
          "name": "shouldStoreDecryption",
          "type": "bool"
        }
      ],
      "name": "decrypt",
      "outputs": [],
      "stateMutability": "payable",
      "type": "function"
    },
    {
      "inputs": [],
      "name": "getBlocksDelay",
      "outputs": [
        {
          "internalType": "uint32",
          "name": "",
          "type": "uint32"
        }
      ],
      "stateMutability": "view",
      "type": "function"
    },
    {
      "inputs": [],
      "name": "getGeneralFee",
      "outputs": [
        {
          "internalType": "uint32",
          "name": "",
          "type": "uint32"
        }
      ],
      "stateMutability": "view",
      "type": "function"
    },
    {
      "inputs": [],
      "name": "getNumSigners",
      "outputs": [
        {
          "internalType": "uint32",
          "name": "",
          "type": "uint32"
        }
      ],
      "stateMutability": "view",
      "type": "function"
    },
    {
      "inputs": [],
      "name": "getPubKey",
      "outputs": [
        {
          "internalType": "bytes32",
          "name": "",
          "type": "bytes32"
        }
      ],
      "stateMutability": "view",
      "type": "function"
    },
    {
      "inputs": [],
      "name": "getThreshold",
      "outputs": [
        {
          "internalType": "uint32",
          "name": "",
          "type": "uint32"
        }
      ],
      "stateMutability": "view",
      "type": "function"
    },
    {
      "inputs": [
        {
          "internalType": "address",
          "name": "",
          "type": "address"
        }
      ],
      "name": "isSigner",
      "outputs": [
        {
          "internalType": "bool",
          "name": "",
          "type": "bool"
        }
      ],
      "stateMutability": "view",
      "type": "function"
    },
    {
      "inputs": [
        {
          "internalType": "bytes32",
          "name": "newSignerPubKey",
          "type": "bytes32"
        }
      ],
      "name": "joinNetwork",
      "outputs": [],
      "stateMutability": "nonpayable",
      "type": "function"
    },
    {
      "inputs": [
        {
          "internalType": "string",
          "name": "cipher",
          "type": "string"
        }
      ],
      "name": "register",
      "outputs": [],
      "stateMutability": "payable",
      "type": "function"
    },
    {
      "inputs": [
        {
          "internalType": "bytes32",
          "name": "",
          "type": "bytes32"
        },
        {
          "internalType": "uint256",
          "name": "",
          "type": "uint256"
        }
      ],
      "name": "shareGenerationPartialSignatures",
      "outputs": [
        {
          "internalType": "bytes32",
          "name": "",
          "type": "bytes32"
        }
      ],
      "stateMutability": "view",
      "type": "function"
    },
    {
      "inputs": [
        {
          "internalType": "string",
          "name": "cipher",
          "type": "string"
        },
        {
          "internalType": "string",
          "name": "decryptedCipher",
          "type": "string"
        }
      ],
      "name": "submitDecryption",
      "outputs": [],
      "stateMutability": "nonpayable",
      "type": "function"
    },
    {
      "inputs": [
        {
          "internalType": "string",
          "name": "cipher",
          "type": "string"
        },
        {
          "internalType": "bytes32",
          "name": "partialDecryption",
          "type": "bytes32"
        }
      ],
      "name": "submitPartialDecryption",
      "outputs": [],
      "stateMutability": "nonpayable",
      "type": "function"
    },
    {
      "inputs": [
        {
          "internalType": "bytes32",
          "name": "newSignerPubKey",
          "type": "bytes32"
        },
        {
          "internalType": "bytes32",
          "name": "share",
          "type": "bytes32"
        }
      ],
      "name": "submitShare",
      "outputs": [],
      "stateMutability": "nonpayable",
      "type": "function"
    }
  ],
  "bytecode": "0x60806040523480156200001157600080fd5b50604051620022a2380380620022a28339818101604052810190620000379190620003d1565b60005b8651811015620000cf5760016002600089848151811062000060576200005f6200048c565b5b602002602001015173ffffffffffffffffffffffffffffffffffffffff1673ffffffffffffffffffffffffffffffffffffffff16815260200190815260200160002060006101000a81548160ff0219169083151502179055508080620000c690620004f4565b9150506200003a565b508460008190555083600160006101000a81548163ffffffff021916908363ffffffff16021790555082600160046101000a81548163ffffffff021916908363ffffffff16021790555081600160086101000a81548163ffffffff021916908363ffffffff160217905550806001600c6101000a81548163ffffffff021916908363ffffffff16021790555050505050505062000541565b6000604051905090565b600080fd5b600080fd5b600080fd5b6000601f19601f8301169050919050565b7f4e487b7100000000000000000000000000000000000000000000000000000000600052604160045260246000fd5b620001cb8262000180565b810181811067ffffffffffffffff82111715620001ed57620001ec62000191565b5b80604052505050565b60006200020262000167565b9050620002108282620001c0565b919050565b600067ffffffffffffffff82111562000233576200023262000191565b5b602082029050602081019050919050565b600080fd5b600073ffffffffffffffffffffffffffffffffffffffff82169050919050565b6000620002768262000249565b9050919050565b620002888162000269565b81146200029457600080fd5b50565b600081519050620002a8816200027d565b92915050565b6000620002c5620002bf8462000215565b620001f6565b90508083825260208201905060208402830185811115620002eb57620002ea62000244565b5b835b8181101562000318578062000303888262000297565b845260208401935050602081019050620002ed565b5050509392505050565b600082601f8301126200033a57620003396200017b565b5b81516200034c848260208601620002ae565b91505092915050565b6000819050919050565b6200036a8162000355565b81146200037657600080fd5b50565b6000815190506200038a816200035f565b92915050565b600063ffffffff82169050919050565b620003ab8162000390565b8114620003b757600080fd5b50565b600081519050620003cb81620003a0565b92915050565b60008060008060008060c08789031215620003f157620003f062000171565b5b600087015167ffffffffffffffff81111562000412576200041162000176565b5b6200042089828a0162000322565b96505060206200043389828a0162000379565b95505060406200044689828a01620003ba565b94505060606200045989828a01620003ba565b93505060806200046c89828a01620003ba565b92505060a06200047f89828a01620003ba565b9150509295509295509295565b7f4e487b7100000000000000000000000000000000000000000000000000000000600052603260045260246000fd5b7f4e487b7100000000000000000000000000000000000000000000000000000000600052601160045260246000fd5b6000819050919050565b60006200050182620004ea565b91507fffffffffffffffffffffffffffffffffffffffffffffffffffffffffffffffff8203620005365762000535620004bb565b5b600182019050919050565b611d5180620005516000396000f3fe6080604052600436106100dd5760003560e01c80638063fae01161007f578063c599a94211610059578063c599a942146102b5578063e75235b8146102de578063f011a75614610309578063f2c298be14610334576100dd565b80638063fae014610220578063a0479ae914610249578063b9a49ddc14610274576100dd565b8063563abf65116100bb578063563abf65146101735780636746ba2f1461019e57806379a9d4c6146101ba5780637df73e27146101e3576100dd565b806338ec96ff146100e25780634ad02ef11461010b5780634e9d22a614610136575b600080fd5b3480156100ee57600080fd5b5061010960048036038101906101049190610ea9565b610350565b005b34801561011757600080fd5b506101206104a6565b60405161012d9190610f43565b60405180910390f35b34801561014257600080fd5b5061015d60048036038101906101589190610fc0565b6104af565b60405161016a9190610f43565b60405180910390f35b34801561017f57600080fd5b506101886104e0565b604051610195919061101f565b60405180910390f35b6101b860048036038101906101b39190611072565b6104fa565b005b3480156101c657600080fd5b506101e160048036038101906101dc91906110d2565b61067e565b005b3480156101ef57600080fd5b5061020a60048036038101906102059190611190565b610b0c565b60405161021791906111cc565b60405180910390f35b34801561022c57600080fd5b50610247600480360381019061024291906111e7565b610b2c565b005b34801561025557600080fd5b5061025e610b6a565b60405161026b919061101f565b60405180910390f35b34801561028057600080fd5b5061029b60048036038101906102969190611368565b610b84565b6040516102ac95949392919061144e565b60405180910390f35b3480156102c157600080fd5b506102dc60048036038101906102d791906114a8565b610c85565b005b3480156102ea57600080fd5b506102f3610cbf565b604051610300919061101f565b60405180910390f35b34801561031557600080fd5b5061031e610cd9565b60405161032b919061101f565b60405180910390f35b61034e600480360381019061034991906114d5565b610cf3565b005b600073ffffffffffffffffffffffffffffffffffffffff166004858560405161037a929190611552565b908152602001604051809103902060000160009054906101000a900473ffffffffffffffffffffffffffffffffffffffff1673ffffffffffffffffffffffffffffffffffffffff16036103cc57600080fd5b8181600486866040516103e0929190611552565b908152602001604051809103902060050191826103fe929190611782565b5060048484604051610411929190611552565b908152602001604051809103902060040160009054906101000a900460ff16156104a0573373ffffffffffffffffffffffffffffffffffffffff166108fc60048686604051610461929190611552565b9081526020016040518091039020600601549081150290604051600060405180830381858888f1935050505015801561049e573d6000803e3d6000fd5b505b50505050565b60008054905090565b600360205281600052604060002081815481106104cb57600080fd5b90600052602060002001600091509150505481565b6000600160049054906101000a900463ffffffff16905090565b3373ffffffffffffffffffffffffffffffffffffffff1660048484604051610523929190611552565b908152602001604051809103902060000160009054906101000a900473ffffffffffffffffffffffffffffffffffffffff1673ffffffffffffffffffffffffffffffffffffffff16146105ab576040517f08c379a00000000000000000000000000000000000000000000000000000000081526004016105a2906118c4565b60405180910390fd5b7fd97417e19933d4d9b7bcd7ba54825368b20b2b0b6efd0efa8d618fe3a6fd07118383836040516105de93929190611911565b60405180910390a143600484846040516105f9929190611552565b9081526020016040518091039020600101819055508015610679573460048484604051610627929190611552565b908152602001604051809103902060060181905550600160048484604051610650929190611552565b908152602001604051809103902060040160006101000a81548160ff0219169083151502179055505b505050565b600260003373ffffffffffffffffffffffffffffffffffffffff1673ffffffffffffffffffffffffffffffffffffffff16815260200190815260200160002060009054906101000a900460ff1661070a576040517f08c379a0000000000000000000000000000000000000000000000000000000008152600401610701906119b5565b60405180910390fd5b600160089054906101000a900463ffffffff1663ffffffff1660048484604051610735929190611552565b9081526020016040518091039020600101546107519190611a04565b431115610793576040517f08c379a000000000000000000000000000000000000000000000000000000000815260040161078a90611aaa565b60405180910390fd5b60005b600484846040516107a8929190611552565b9081526020016040518091039020600201805490508110156108a4573373ffffffffffffffffffffffffffffffffffffffff16600485856040516107ed929190611552565b908152602001604051809103902060020182815481106108105761080f611aca565b5b9060005260206000200160009054906101000a900473ffffffffffffffffffffffffffffffffffffffff1673ffffffffffffffffffffffffffffffffffffffff1603610891576040517f08c379a000000000000000000000000000000000000000000000000000000000815260040161088890611b6b565b60405180910390fd5b808061089c90611b8b565b915050610796565b503373ffffffffffffffffffffffffffffffffffffffff166108fc600160049054906101000a900463ffffffff166001600c9054906101000a900463ffffffff166108ef9190611c02565b63ffffffff169081150290604051600060405180830381858888f19350505050158015610920573d6000803e3d6000fd5b5060048383604051610933929190611552565b90815260200160405180910390206003018190806001815401808255809150506001900390600052602060002001600090919091909150556004838360405161097d929190611552565b9081526020016040518091039020600201339080600181540180825580915050600190039060005260206000200160009091909190916101000a81548173ffffffffffffffffffffffffffffffffffffffff021916908373ffffffffffffffffffffffffffffffffffffffff160217905550600160009054906101000a900463ffffffff1663ffffffff1660048484604051610a1a929190611552565b90815260200160405180910390206003018054905010610b075760048383604051610a46929190611552565b908152602001604051809103902060040160009054906101000a900460ff16610aa7577f1af2555444bc4bd98c689b04b66248288d623c372bff560cefbb4d11a5eb1add8383604051610a9a929190611c33565b60405180910390a1610b06565b7f21295728f6e659fa24e9e51a4f99417afe52ea7d4a1eb6453f8cd65d95598073838360048686604051610adc929190611552565b908152602001604051809103902060060154604051610afd93929190611c57565b60405180910390a15b5b505050565b60026020528060005260406000206000915054906101000a900460ff1681565b600360008381526020019081526020016000208190806001815401808255809150506001900390600052602060002001600090919091909150555050565b6000600160089054906101000a900463ffffffff16905090565b6004818051602081018201805184825260208301602085012081835280955050505050506000915090508060000160009054906101000a900473ffffffffffffffffffffffffffffffffffffffff16908060010154908060040160009054906101000a900460ff1690806005018054610bfc906115a5565b80601f0160208091040260200160405190810160405280929190818152602001828054610c28906115a5565b8015610c755780601f10610c4a57610100808354040283529160200191610c75565b820191906000526020600020905b815481529060010190602001808311610c5857829003601f168201915b5050505050908060060154905085565b7ff038f3ef493c9873db4722ea4d338910a38691891fc5c58be1ff60ea1c67091c81604051610cb49190610f43565b60405180910390a150565b6000600160009054906101000a900463ffffffff16905090565b60006001600c9054906101000a900463ffffffff16905090565b600073ffffffffffffffffffffffffffffffffffffffff1660048383604051610d1d929190611552565b908152602001604051809103902060000160009054906101000a900473ffffffffffffffffffffffffffffffffffffffff1673ffffffffffffffffffffffffffffffffffffffff1614610da5576040517f08c379a0000000000000000000000000000000000000000000000000000000008152600401610d9c90611cfb565b60405180910390fd5b6001600c9054906101000a900463ffffffff1663ffffffff16341015610dca57600080fd5b3360048383604051610ddd929190611552565b908152602001604051809103902060000160006101000a81548173ffffffffffffffffffffffffffffffffffffffff021916908373ffffffffffffffffffffffffffffffffffffffff1602179055505050565b6000604051905090565b600080fd5b600080fd5b600080fd5b600080fd5b600080fd5b60008083601f840112610e6957610e68610e44565b5b8235905067ffffffffffffffff811115610e8657610e85610e49565b5b602083019150836001820283011115610ea257610ea1610e4e565b5b9250929050565b60008060008060408587031215610ec357610ec2610e3a565b5b600085013567ffffffffffffffff811115610ee157610ee0610e3f565b5b610eed87828801610e53565b9450945050602085013567ffffffffffffffff811115610f1057610f0f610e3f565b5b610f1c87828801610e53565b925092505092959194509250565b6000819050919050565b610f3d81610f2a565b82525050565b6000602082019050610f586000830184610f34565b92915050565b610f6781610f2a565b8114610f7257600080fd5b50565b600081359050610f8481610f5e565b92915050565b6000819050919050565b610f9d81610f8a565b8114610fa857600080fd5b50565b600081359050610fba81610f94565b92915050565b60008060408385031215610fd757610fd6610e3a565b5b6000610fe585828601610f75565b9250506020610ff685828601610fab565b9150509250929050565b600063ffffffff82169050919050565b61101981611000565b82525050565b60006020820190506110346000830184611010565b92915050565b60008115159050919050565b61104f8161103a565b811461105a57600080fd5b50565b60008135905061106c81611046565b92915050565b60008060006040848603121561108b5761108a610e3a565b5b600084013567ffffffffffffffff8111156110a9576110a8610e3f565b5b6110b586828701610e53565b935093505060206110c88682870161105d565b9150509250925092565b6000806000604084860312156110eb576110ea610e3a565b5b600084013567ffffffffffffffff81111561110957611108610e3f565b5b61111586828701610e53565b9350935050602061112886828701610f75565b9150509250925092565b600073ffffffffffffffffffffffffffffffffffffffff82169050919050565b600061115d82611132565b9050919050565b61116d81611152565b811461117857600080fd5b50565b60008135905061118a81611164565b92915050565b6000602082840312156111a6576111a5610e3a565b5b60006111b48482850161117b565b91505092915050565b6111c68161103a565b82525050565b60006020820190506111e160008301846111bd565b92915050565b600080604083850312156111fe576111fd610e3a565b5b600061120c85828601610f75565b925050602061121d85828601610f75565b9150509250929050565b600080fd5b6000601f19601f8301169050919050565b7f4e487b7100000000000000000000000000000000000000000000000000000000600052604160045260246000fd5b6112758261122c565b810181811067ffffffffffffffff821117156112945761129361123d565b5b80604052505050565b60006112a7610e30565b90506112b3828261126c565b919050565b600067ffffffffffffffff8211156112d3576112d261123d565b5b6112dc8261122c565b9050602081019050919050565b82818337600083830152505050565b600061130b611306846112b8565b61129d565b90508281526020810184848401111561132757611326611227565b5b6113328482856112e9565b509392505050565b600082601f83011261134f5761134e610e44565b5b813561135f8482602086016112f8565b91505092915050565b60006020828403121561137e5761137d610e3a565b5b600082013567ffffffffffffffff81111561139c5761139b610e3f565b5b6113a88482850161133a565b91505092915050565b6113ba81611152565b82525050565b6113c981610f8a565b82525050565b600081519050919050565b600082825260208201905092915050565b60005b838110156114095780820151818401526020810190506113ee565b60008484015250505050565b6000611420826113cf565b61142a81856113da565b935061143a8185602086016113eb565b6114438161122c565b840191505092915050565b600060a08201905061146360008301886113b1565b61147060208301876113c0565b61147d60408301866111bd565b818103606083015261148f8185611415565b905061149e60808301846113c0565b9695505050505050565b6000602082840312156114be576114bd610e3a565b5b60006114cc84828501610f75565b91505092915050565b600080602083850312156114ec576114eb610e3a565b5b600083013567ffffffffffffffff81111561150a57611509610e3f565b5b61151685828601610e53565b92509250509250929050565b600081905092915050565b60006115398385611522565b93506115468385846112e9565b82840190509392505050565b600061155f82848661152d565b91508190509392505050565b600082905092915050565b7f4e487b7100000000000000000000000000000000000000000000000000000000600052602260045260246000fd5b600060028204905060018216806115bd57607f821691505b6020821081036115d0576115cf611576565b5b50919050565b60008190508160005260206000209050919050565b60006020601f8301049050919050565b600082821b905092915050565b6000600883026116387fffffffffffffffffffffffffffffffffffffffffffffffffffffffffffffffff826115fb565b61164286836115fb565b95508019841693508086168417925050509392505050565b6000819050919050565b600061167f61167a61167584610f8a565b61165a565b610f8a565b9050919050565b6000819050919050565b61169983611664565b6116ad6116a582611686565b848454611608565b825550505050565b600090565b6116c26116b5565b6116cd818484611690565b505050565b5b818110156116f1576116e66000826116ba565b6001810190506116d3565b5050565b601f82111561173657611707816115d6565b611710846115eb565b8101602085101561171f578190505b61173361172b856115eb565b8301826116d2565b50505b505050565b600082821c905092915050565b60006117596000198460080261173b565b1980831691505092915050565b60006117728383611748565b9150826002028217905092915050565b61178c838361156b565b67ffffffffffffffff8111156117a5576117a461123d565b5b6117af82546115a5565b6117ba8282856116f5565b6000601f8311600181146117e957600084156117d7578287013590505b6117e18582611766565b865550611849565b601f1984166117f7866115d6565b60005b8281101561181f578489013582556001820191506020850194506020810190506117fa565b8683101561183c5784890135611838601f891682611748565b8355505b6001600288020188555050505b50505050505050565b7f546869732061646472657373206973206e6f7420616c6c6f77656420746f206460008201527f656372797074207468697320636970686572746578742e000000000000000000602082015250565b60006118ae6037836113da565b91506118b982611852565b604082019050919050565b600060208201905081810360008301526118dd816118a1565b9050919050565b60006118f083856113da565b93506118fd8385846112e9565b6119068361122c565b840190509392505050565b6000604082019050818103600083015261192c8185876118e4565b905061193b60208301846111bd565b949350505050565b7f546869732061646472657373206973206e6f742061207365637245544820736960008201527f676e65722e000000000000000000000000000000000000000000000000000000602082015250565b600061199f6025836113da565b91506119aa82611943565b604082019050919050565b600060208201905081810360008301526119ce81611992565b9050919050565b7f4e487b7100000000000000000000000000000000000000000000000000000000600052601160045260246000fd5b6000611a0f82610f8a565b9150611a1a83610f8a565b9250828201905080821115611a3257611a316119d5565b5b92915050565b7f5468652074696d6520746f207375626d69742061207061727469616c2064656360008201527f72797074696f6e20686173207061737365642e00000000000000000000000000602082015250565b6000611a946033836113da565b9150611a9f82611a38565b604082019050919050565b60006020820190508181036000830152611ac381611a87565b9050919050565b7f4e487b7100000000000000000000000000000000000000000000000000000000600052603260045260246000fd5b7f54686973206164647265737320616c6572656164792070726f7669646564207460008201527f68656972207061727469616c2064656372797074696f6e2e0000000000000000602082015250565b6000611b556038836113da565b9150611b6082611af9565b604082019050919050565b60006020820190508181036000830152611b8481611b48565b9050919050565b6000611b9682610f8a565b91507fffffffffffffffffffffffffffffffffffffffffffffffffffffffffffffffff8203611bc857611bc76119d5565b5b600182019050919050565b7f4e487b7100000000000000000000000000000000000000000000000000000000600052601260045260246000fd5b6000611c0d82611000565b9150611c1883611000565b925082611c2857611c27611bd3565b5b828204905092915050565b60006020820190508181036000830152611c4e8184866118e4565b90509392505050565b60006040820190508181036000830152611c728185876118e4565b9050611c8160208301846113c0565b949350505050565b7f54686973206369706865727465787420697320616c726561647920726567697360008201527f74657265642e20547279207573696e6720616e6f746865722073616c742e0000602082015250565b6000611ce5603e836113da565b9150611cf082611c89565b604082019050919050565b60006020820190508181036000830152611d1481611cd8565b905091905056fea264697066735822122018a78c3385520cf80f768021f63c5e6dbcf1f27ff815b9a3bd37625f42b76df164736f6c63430008110033",
  "linkReferences": {},
  "deployedLinkReferences": {}
}